{
  "contractName": "MasterWallet",
  "abi": [
    {
      "anonymous": false,
      "inputs": [
        {
          "indexed": false,
          "internalType": "address",
          "name": "coldWalletAddress",
          "type": "address"
        }
      ],
      "name": "ColdWalletChanged",
      "type": "event"
    },
    {
      "anonymous": false,
      "inputs": [
        {
          "indexed": false,
          "internalType": "address",
          "name": "userWalletAddress",
          "type": "address"
        }
      ],
      "name": "EtherReceived",
      "type": "event"
    },
    {
      "anonymous": false,
      "inputs": [
        {
          "indexed": false,
          "internalType": "address",
          "name": "managerAddress",
          "type": "address"
        },
        {
          "indexed": false,
          "internalType": "bool",
          "name": "managerFlag",
          "type": "bool"
        }
      ],
      "name": "ManagerChanged",
      "type": "event"
    },
    {
      "anonymous": false,
      "inputs": [
        {
          "indexed": true,
          "internalType": "address",
          "name": "previousOwner",
          "type": "address"
        },
        {
          "indexed": true,
          "internalType": "address",
          "name": "newOwner",
          "type": "address"
        }
      ],
      "name": "OwnershipTransferred",
      "type": "event"
    },
    {
      "anonymous": false,
      "inputs": [
        {
          "indexed": false,
          "internalType": "address",
          "name": "walletAddress",
          "type": "address"
        }
      ],
      "name": "WalletCreated",
      "type": "event"
    },
    {
      "inputs": [
        {
          "internalType": "address",
          "name": "",
          "type": "address"
        }
      ],
      "name": "_manager",
      "outputs": [
        {
          "internalType": "bool",
          "name": "",
          "type": "bool"
        }
      ],
      "stateMutability": "view",
      "type": "function"
    },
    {
      "inputs": [
        {
          "internalType": "address",
          "name": "managerAddress",
          "type": "address"
        }
      ],
      "name": "delManager",
      "outputs": [],
      "stateMutability": "nonpayable",
      "type": "function"
    },
    {
      "inputs": [
        {
          "internalType": "address",
          "name": "manager",
          "type": "address"
        }
      ],
      "name": "isManager",
      "outputs": [
        {
          "internalType": "bool",
          "name": "",
          "type": "bool"
        }
      ],
      "stateMutability": "view",
      "type": "function"
    },
    {
      "inputs": [],
      "name": "owner",
      "outputs": [
        {
          "internalType": "address",
          "name": "",
          "type": "address"
        }
      ],
      "stateMutability": "view",
      "type": "function"
    },
    {
      "inputs": [],
      "name": "renounceOwnership",
      "outputs": [],
      "stateMutability": "nonpayable",
      "type": "function"
    },
    {
      "inputs": [
        {
          "internalType": "address",
          "name": "newManagerAddress",
          "type": "address"
        }
      ],
      "name": "setManager",
      "outputs": [],
      "stateMutability": "nonpayable",
      "type": "function"
    },
    {
      "inputs": [
        {
          "internalType": "address",
          "name": "newOwner",
          "type": "address"
        }
      ],
      "name": "transferOwnership",
      "outputs": [],
      "stateMutability": "nonpayable",
      "type": "function"
    },
    {
      "stateMutability": "payable",
      "type": "receive"
    },
    {
      "inputs": [
        {
          "internalType": "address",
          "name": "owner",
          "type": "address"
        }
      ],
      "name": "initialize",
      "outputs": [],
      "stateMutability": "nonpayable",
      "type": "function"
    },
    {
      "inputs": [
        {
          "internalType": "uint256",
          "name": "hotRate",
          "type": "uint256"
        }
      ],
      "name": "changeHotColdRate",
      "outputs": [],
      "stateMutability": "nonpayable",
      "type": "function"
    },
    {
      "inputs": [],
      "name": "createWallet",
      "outputs": [],
      "stateMutability": "nonpayable",
      "type": "function"
    },
    {
      "inputs": [
        {
          "internalType": "address[]",
          "name": "tokenAddress",
          "type": "address[]"
        },
        {
          "internalType": "address[]",
          "name": "target",
          "type": "address[]"
        },
        {
          "internalType": "uint256[]",
          "name": "amount",
          "type": "uint256[]"
        }
      ],
      "name": "sendTokens",
      "outputs": [],
      "stateMutability": "payable",
      "type": "function"
    },
    {
      "inputs": [
        {
          "internalType": "address[]",
          "name": "tokenAddress",
          "type": "address[]"
        },
        {
          "internalType": "address[]",
          "name": "target",
          "type": "address[]"
        }
      ],
      "name": "gathering",
      "outputs": [],
      "stateMutability": "payable",
      "type": "function"
    },
    {
      "inputs": [
        {
          "internalType": "address[]",
          "name": "tokens",
          "type": "address[]"
        }
      ],
      "name": "rebalancingMany",
      "outputs": [],
      "stateMutability": "nonpayable",
      "type": "function"
    },
    {
      "inputs": [
        {
          "internalType": "address",
          "name": "tokenAddress",
          "type": "address"
        }
      ],
      "name": "rebalancing",
      "outputs": [],
      "stateMutability": "nonpayable",
      "type": "function"
    },
    {
      "inputs": [
        {
          "internalType": "address",
          "name": "coldWalletAddress",
          "type": "address"
        }
      ],
      "name": "setColdWallet",
      "outputs": [],
      "stateMutability": "nonpayable",
      "type": "function"
    },
    {
      "inputs": [],
      "name": "getColdWallet",
      "outputs": [
        {
          "internalType": "address",
          "name": "",
          "type": "address"
        }
      ],
      "stateMutability": "view",
      "type": "function"
    },
    {
      "inputs": [
        {
          "internalType": "uint256",
          "name": "_value",
          "type": "uint256"
        },
        {
          "internalType": "uint256",
          "name": "_percent",
          "type": "uint256"
        }
      ],
      "name": "percent",
      "outputs": [
        {
          "internalType": "uint256",
          "name": "",
          "type": "uint256"
        }
      ],
      "stateMutability": "pure",
      "type": "function"
    }
  ],
  "bytecode": "0x608060405234801561001057600080fd5b50612eb8806100206000396000f3fe6080604052600436106101025760003560e01c8063a65eacdc11610095578063d0ebdbe711610064578063d0ebdbe714610596578063e4dc64fc146105e7578063ec7c140b146106ac578063f2fde38b1461088c578063f3ae2415146108dd57610156565b8063a65eacdc14610468578063ae684e39146104b9578063b2ec56231461050a578063c4d66de81461054557610156565b806342318e3d116100d157806342318e3d1461035057806345d4a354146103a9578063715018a6146104105780638da5cb5b1461042757610156565b806306087e5b1461015b5780630df9230f146101ac57806311ebbf24146102f85780631f979c321461030f57610156565b36610156577f0a4644bd3fcbb4f1fe1c471ff39078af7f826ac7b37422ea049b88be4ce51fd433604051808273ffffffffffffffffffffffffffffffffffffffff16815260200191505060405180910390a1005b600080fd5b34801561016757600080fd5b506101aa6004803603602081101561017e57600080fd5b81019080803573ffffffffffffffffffffffffffffffffffffffff169060200190929190505050610944565b005b6102f6600480360360408110156101c257600080fd5b81019080803590602001906401000000008111156101df57600080fd5b8201836020820111156101f157600080fd5b8035906020019184602083028401116401000000008311171561021357600080fd5b919080806020026020016040519081016040528093929190818152602001838360200280828437600081840152601f19601f8201169050808301925050505050505091929192908035906020019064010000000081111561027357600080fd5b82018360208201111561028557600080fd5b803590602001918460208302840111640100000000831117156102a757600080fd5b919080806020026020016040519081016040528093929190818152602001838360200280828437600081840152601f19601f820116905080830192505050505050509192919290505050610a9f565b005b34801561030457600080fd5b5061030d610c14565b005b34801561031b57600080fd5b50610324610ded565b604051808273ffffffffffffffffffffffffffffffffffffffff16815260200191505060405180910390f35b34801561035c57600080fd5b506103936004803603604081101561037357600080fd5b810190808035906020019092919080359060200190929190505050610e17565b6040518082815260200191505060405180910390f35b3480156103b557600080fd5b506103f8600480360360208110156103cc57600080fd5b81019080803573ffffffffffffffffffffffffffffffffffffffff169060200190929190505050610e5a565b60405180821515815260200191505060405180910390f35b34801561041c57600080fd5b50610425610e7a565b005b34801561043357600080fd5b5061043c611005565b604051808273ffffffffffffffffffffffffffffffffffffffff16815260200191505060405180910390f35b34801561047457600080fd5b506104b76004803603602081101561048b57600080fd5b81019080803573ffffffffffffffffffffffffffffffffffffffff16906020019092919050505061102f565b005b3480156104c557600080fd5b50610508600480360360208110156104dc57600080fd5b81019080803573ffffffffffffffffffffffffffffffffffffffff1690602001909291905050506111ac565b005b34801561051657600080fd5b506105436004803603602081101561052d57600080fd5b81019080803590602001909291905050506115d4565b005b34801561055157600080fd5b506105946004803603602081101561056857600080fd5b81019080803573ffffffffffffffffffffffffffffffffffffffff1690602001909291905050506116c1565b005b3480156105a257600080fd5b506105e5600480360360208110156105b957600080fd5b81019080803573ffffffffffffffffffffffffffffffffffffffff16906020019092919050505061187a565b005b3480156105f357600080fd5b506106aa6004803603602081101561060a57600080fd5b810190808035906020019064010000000081111561062757600080fd5b82018360208201111561063957600080fd5b8035906020019184602083028401116401000000008311171561065b57600080fd5b919080806020026020016040519081016040528093929190818152602001838360200280828437600081840152601f19601f8201169050808301925050505050505091929192905050506119f7565b005b61088a600480360360608110156106c257600080fd5b81019080803590602001906401000000008111156106df57600080fd5b8201836020820111156106f157600080fd5b8035906020019184602083028401116401000000008311171561071357600080fd5b919080806020026020016040519081016040528093929190818152602001838360200280828437600081840152601f19601f8201169050808301925050505050505091929192908035906020019064010000000081111561077357600080fd5b82018360208201111561078557600080fd5b803590602001918460208302840111640100000000831117156107a757600080fd5b919080806020026020016040519081016040528093929190818152602001838360200280828437600081840152601f19601f8201169050808301925050505050505091929192908035906020019064010000000081111561080757600080fd5b82018360208201111561081957600080fd5b8035906020019184602083028401116401000000008311171561083b57600080fd5b919080806020026020016040519081016040528093929190818152602001838360200280828437600081840152601f19601f820116905080830192505050505050509192919290505050611ae0565b005b34801561089857600080fd5b506108db600480360360208110156108af57600080fd5b81019080803573ffffffffffffffffffffffffffffffffffffffff169060200190929190505050611d6b565b005b3480156108e957600080fd5b5061092c6004803603602081101561090057600080fd5b81019080803573ffffffffffffffffffffffffffffffffffffffff169060200190929190505050611f7b565b60405180821515815260200191505060405180910390f35b61094c611fd8565b73ffffffffffffffffffffffffffffffffffffffff16606560009054906101000a900473ffffffffffffffffffffffffffffffffffffffff1673ffffffffffffffffffffffffffffffffffffffff1614610a0e576040517f08c379a00000000000000000000000000000000000000000000000000000000081526004018080602001828103825260208152602001807f4f776e61626c653a2063616c6c6572206973206e6f7420746865206f776e657281525060200191505060405180910390fd5b80609860006101000a81548173ffffffffffffffffffffffffffffffffffffffff021916908373ffffffffffffffffffffffffffffffffffffffff1602179055507f12b87b4923747c53aaddfd1b826b461a2f191f35bcebb9b2a4194c47d664be6581604051808273ffffffffffffffffffffffffffffffffffffffff16815260200191505060405180910390a150565b6001151560976000610aaf611fd8565b73ffffffffffffffffffffffffffffffffffffffff1673ffffffffffffffffffffffffffffffffffffffff16815260200190815260200160002060009054906101000a900460ff16151514610b4f576040517f08c379a0000000000000000000000000000000000000000000000000000000008152600401808060200182810382526022815260200180612e616022913960400191505060405180910390fd5b60005b8251811015610c0f57818181518110610b6757fe5b602002602001015173ffffffffffffffffffffffffffffffffffffffff16631a695230848381518110610b9657fe5b60200260200101516040518263ffffffff1660e01b8152600401808273ffffffffffffffffffffffffffffffffffffffff168152602001915050600060405180830381600087803b158015610bea57600080fd5b505af1158015610bfe573d6000803e3d6000fd5b505050508080600101915050610b52565b505050565b6001151560976000610c24611fd8565b73ffffffffffffffffffffffffffffffffffffffff1673ffffffffffffffffffffffffffffffffffffffff16815260200190815260200160002060009054906101000a900460ff16151514610cc4576040517f08c379a0000000000000000000000000000000000000000000000000000000008152600401808060200182810382526022815260200180612e616022913960400191505060405180910390fd5b606030604051602401808273ffffffffffffffffffffffffffffffffffffffff1681526020019150506040516020818303038152906040527fc4d66de8000000000000000000000000000000000000000000000000000000007bffffffffffffffffffffffffffffffffffffffffffffffffffffffff19166020820180517bffffffffffffffffffffffffffffffffffffffffffffffffffffffff838183161783525050505090506000610d9a609960009054906101000a900473ffffffffffffffffffffffffffffffffffffffff1683611fe0565b90507f234cf33b32239d80b54161e2396c80cdeaf4d34161300e54d8bc01eb7c0ea55381604051808273ffffffffffffffffffffffffffffffffffffffff16815260200191505060405180910390a15050565b6000609860009054906101000a900473ffffffffffffffffffffffffffffffffffffffff16905090565b600080610e25836064612119565b90506000610e33858361219f565b90506000610e4c610e448385612119565b6127106121da565b905080935050505092915050565b60976020528060005260406000206000915054906101000a900460ff1681565b610e82611fd8565b73ffffffffffffffffffffffffffffffffffffffff16606560009054906101000a900473ffffffffffffffffffffffffffffffffffffffff1673ffffffffffffffffffffffffffffffffffffffff1614610f44576040517f08c379a00000000000000000000000000000000000000000000000000000000081526004018080602001828103825260208152602001807f4f776e61626c653a2063616c6c6572206973206e6f7420746865206f776e657281525060200191505060405180910390fd5b600073ffffffffffffffffffffffffffffffffffffffff16606560009054906101000a900473ffffffffffffffffffffffffffffffffffffffff1673ffffffffffffffffffffffffffffffffffffffff167f8be0079c531659141344cd1fd0a4f28419497f9722a3daafe3b4186f6b6457e060405160405180910390a36000606560006101000a81548173ffffffffffffffffffffffffffffffffffffffff021916908373ffffffffffffffffffffffffffffffffffffffff160217905550565b6000606560009054906101000a900473ffffffffffffffffffffffffffffffffffffffff16905090565b611037611fd8565b73ffffffffffffffffffffffffffffffffffffffff16606560009054906101000a900473ffffffffffffffffffffffffffffffffffffffff1673ffffffffffffffffffffffffffffffffffffffff16146110f9576040517f08c379a00000000000000000000000000000000000000000000000000000000081526004018080602001828103825260208152602001807f4f776e61626c653a2063616c6c6572206973206e6f7420746865206f776e657281525060200191505060405180910390fd5b6000609760008373ffffffffffffffffffffffffffffffffffffffff1673ffffffffffffffffffffffffffffffffffffffff16815260200190815260200160002060006101000a81548160ff0219169083151502179055507f7da21a82304da61f5e2f4e156225cd8a75452a5f09f2579d11f0e5054103fb72816000604051808373ffffffffffffffffffffffffffffffffffffffff16815260200182151581526020019250505060405180910390a150565b60011515609760006111bc611fd8565b73ffffffffffffffffffffffffffffffffffffffff1673ffffffffffffffffffffffffffffffffffffffff16815260200190815260200160002060009054906101000a900460ff1615151461125c576040517f08c379a0000000000000000000000000000000000000000000000000000000008152600401808060200182810382526022815260200180612e616022913960400191505060405180910390fd5b60008060008073ffffffffffffffffffffffffffffffffffffffff168473ffffffffffffffffffffffffffffffffffffffff16141561136b57609860009054906101000a900473ffffffffffffffffffffffffffffffffffffffff1673ffffffffffffffffffffffffffffffffffffffff163192504791506112e96112e18385612224565b609a54610e17565b90508082111561136657609860009054906101000a900473ffffffffffffffffffffffffffffffffffffffff1673ffffffffffffffffffffffffffffffffffffffff166108fc61133984846122ac565b9081150290604051600060405180830381858888f19350505050158015611364573d6000803e3d6000fd5b505b6115ce565b8373ffffffffffffffffffffffffffffffffffffffff166370a08231609860009054906101000a900473ffffffffffffffffffffffffffffffffffffffff166040518263ffffffff1660e01b8152600401808273ffffffffffffffffffffffffffffffffffffffff16815260200191505060206040518083038186803b1580156113f457600080fd5b505afa158015611408573d6000803e3d6000fd5b505050506040513d602081101561141e57600080fd5b810190808051906020019092919050505092508373ffffffffffffffffffffffffffffffffffffffff166370a08231306040518263ffffffff1660e01b8152600401808273ffffffffffffffffffffffffffffffffffffffff16815260200191505060206040518083038186803b15801561149857600080fd5b505afa1580156114ac573d6000803e3d6000fd5b505050506040513d60208110156114c257600080fd5b810190808051906020019092919050505091506114ea6114e28385612224565b609a54610e17565b9050808211156115cd578373ffffffffffffffffffffffffffffffffffffffff1663a9059cbb609860009054906101000a900473ffffffffffffffffffffffffffffffffffffffff1661153d85856122ac565b6040518363ffffffff1660e01b8152600401808373ffffffffffffffffffffffffffffffffffffffff16815260200182815260200192505050602060405180830381600087803b15801561159057600080fd5b505af11580156115a4573d6000803e3d6000fd5b505050506040513d60208110156115ba57600080fd5b8101908080519060200190929190505050505b5b50505050565b6115dc611fd8565b73ffffffffffffffffffffffffffffffffffffffff16606560009054906101000a900473ffffffffffffffffffffffffffffffffffffffff1673ffffffffffffffffffffffffffffffffffffffff161461169e576040517f08c379a00000000000000000000000000000000000000000000000000000000081526004018080602001828103825260208152602001807f4f776e61626c653a2063616c6c6572206973206e6f7420746865206f776e657281525060200191505060405180910390fd5b6064811080156116ae5750600081115b6116b757600080fd5b80609a8190555050565b600060019054906101000a900460ff16806116e057506116df6122f6565b5b806116f6575060008054906101000a900460ff16155b61174b576040517f08c379a000000000000000000000000000000000000000000000000000000000815260040180806020018281038252602e815260200180612e33602e913960400191505060405180910390fd5b60008060019054906101000a900460ff16159050801561179b576001600060016101000a81548160ff02191690831515021790555060016000806101000a81548160ff0219169083151502179055505b6117a361230d565b6040516117af9061294c565b604051809103906000f0801580156117cb573d6000803e3d6000fd5b50609960006101000a81548173ffffffffffffffffffffffffffffffffffffffff021916908373ffffffffffffffffffffffffffffffffffffffff16021790555081609860006101000a81548173ffffffffffffffffffffffffffffffffffffffff021916908373ffffffffffffffffffffffffffffffffffffffff160217905550601e609a8190555080156118765760008060016101000a81548160ff0219169083151502179055505b5050565b611882611fd8565b73ffffffffffffffffffffffffffffffffffffffff16606560009054906101000a900473ffffffffffffffffffffffffffffffffffffffff1673ffffffffffffffffffffffffffffffffffffffff1614611944576040517f08c379a00000000000000000000000000000000000000000000000000000000081526004018080602001828103825260208152602001807f4f776e61626c653a2063616c6c6572206973206e6f7420746865206f776e657281525060200191505060405180910390fd5b6001609760008373ffffffffffffffffffffffffffffffffffffffff1673ffffffffffffffffffffffffffffffffffffffff16815260200190815260200160002060006101000a81548160ff0219169083151502179055507f7da21a82304da61f5e2f4e156225cd8a75452a5f09f2579d11f0e5054103fb72816001604051808373ffffffffffffffffffffffffffffffffffffffff16815260200182151581526020019250505060405180910390a150565b6001151560976000611a07611fd8565b73ffffffffffffffffffffffffffffffffffffffff1673ffffffffffffffffffffffffffffffffffffffff16815260200190815260200160002060009054906101000a900460ff16151514611aa7576040517f08c379a0000000000000000000000000000000000000000000000000000000008152600401808060200182810382526022815260200180612e616022913960400191505060405180910390fd5b60005b8151811015611adc57611acf828281518110611ac257fe5b60200260200101516111ac565b8080600101915050611aaa565b5050565b6001151560976000611af0611fd8565b73ffffffffffffffffffffffffffffffffffffffff1673ffffffffffffffffffffffffffffffffffffffff16815260200190815260200160002060009054906101000a900460ff16151514611b90576040517f08c379a0000000000000000000000000000000000000000000000000000000008152600401808060200182810382526022815260200180612e616022913960400191505060405180910390fd5b81518351148015611ba2575080518251145b611bab57600080fd5b60005b8351811015611d6557600073ffffffffffffffffffffffffffffffffffffffff16848281518110611bdb57fe5b602002602001015173ffffffffffffffffffffffffffffffffffffffff161415611c7157828181518110611c0b57fe5b602002602001015173ffffffffffffffffffffffffffffffffffffffff166108fc838381518110611c3857fe5b60200260200101519081150290604051600060405180830381858888f19350505050158015611c6b573d6000803e3d6000fd5b50611d58565b838181518110611c7d57fe5b602002602001015173ffffffffffffffffffffffffffffffffffffffff1663a9059cbb848381518110611cac57fe5b6020026020010151848481518110611cc057fe5b60200260200101516040518363ffffffff1660e01b8152600401808373ffffffffffffffffffffffffffffffffffffffff16815260200182815260200192505050602060405180830381600087803b158015611d1b57600080fd5b505af1158015611d2f573d6000803e3d6000fd5b505050506040513d6020811015611d4557600080fd5b8101908080519060200190929190505050505b8080600101915050611bae565b50505050565b611d73611fd8565b73ffffffffffffffffffffffffffffffffffffffff16606560009054906101000a900473ffffffffffffffffffffffffffffffffffffffff1673ffffffffffffffffffffffffffffffffffffffff1614611e35576040517f08c379a00000000000000000000000000000000000000000000000000000000081526004018080602001828103825260208152602001807f4f776e61626c653a2063616c6c6572206973206e6f7420746865206f776e657281525060200191505060405180910390fd5b600073ffffffffffffffffffffffffffffffffffffffff168173ffffffffffffffffffffffffffffffffffffffff161415611ebb576040517f08c379a0000000000000000000000000000000000000000000000000000000008152600401808060200182810382526026815260200180612dec6026913960400191505060405180910390fd5b8073ffffffffffffffffffffffffffffffffffffffff16606560009054906101000a900473ffffffffffffffffffffffffffffffffffffffff1673ffffffffffffffffffffffffffffffffffffffff167f8be0079c531659141344cd1fd0a4f28419497f9722a3daafe3b4186f6b6457e060405160405180910390a380606560006101000a81548173ffffffffffffffffffffffffffffffffffffffff021916908373ffffffffffffffffffffffffffffffffffffffff16021790555050565b600060011515609760008473ffffffffffffffffffffffffffffffffffffffff1673ffffffffffffffffffffffffffffffffffffffff16815260200190815260200160002060009054906101000a900460ff161515149050919050565b600033905090565b6000808360601b90506040517f3d602d80600a3d3981f3363d3d373d3d3d363d7300000000000000000000000081528160148201527f5af43d82803e903d91602b57fd5bf3000000000000000000000000000000000060288201526037816000f09250506000835111156121125760008273ffffffffffffffffffffffffffffffffffffffff16846040518082805190602001908083835b6020831061209b5780518252602082019150602081019050602083039250612078565b6001836020036101000a0380198251168184511680821785525050505050509050019150506000604051808303816000865af19150503d80600081146120fd576040519150601f19603f3d011682016040523d82523d6000602084013e612102565b606091505b505090508061211057600080fd5b505b5092915050565b60008083141561212c5760009050612199565b600082840290508284828161213d57fe5b0414612194576040517f08c379a0000000000000000000000000000000000000000000000000000000008152600401808060200182810382526021815260200180612e126021913960400191505060405180910390fd5b809150505b92915050565b6000806121ac8484612224565b905060006121bb8260016122ac565b90506121d06121ca82866121da565b85612119565b9250505092915050565b600061221c83836040518060400160405280601a81526020017f536166654d6174683a206469766973696f6e206279207a65726f000000000000815250612413565b905092915050565b6000808284019050838110156122a2576040517f08c379a000000000000000000000000000000000000000000000000000000000815260040180806020018281038252601b8152602001807f536166654d6174683a206164646974696f6e206f766572666c6f77000000000081525060200191505060405180910390fd5b8091505092915050565b60006122ee83836040518060400160405280601e81526020017f536166654d6174683a207375627472616374696f6e206f766572666c6f7700008152506124d9565b905092915050565b6000803090506000813b9050600081149250505090565b600060019054906101000a900460ff168061232c575061232b6122f6565b5b80612342575060008054906101000a900460ff16155b612397576040517f08c379a000000000000000000000000000000000000000000000000000000000815260040180806020018281038252602e815260200180612e33602e913960400191505060405180910390fd5b60008060019054906101000a900460ff1615905080156123e7576001600060016101000a81548160ff02191690831515021790555060016000806101000a81548160ff0219169083151502179055505b6123ef612599565b80156124105760008060016101000a81548160ff0219169083151502179055505b50565b600080831182906124bf576040517f08c379a00000000000000000000000000000000000000000000000000000000081526004018080602001828103825283818151815260200191508051906020019080838360005b83811015612484578082015181840152602081019050612469565b50505050905090810190601f1680156124b15780820380516001836020036101000a031916815260200191505b509250505060405180910390fd5b5060008385816124cb57fe5b049050809150509392505050565b6000838311158290612586576040517f08c379a00000000000000000000000000000000000000000000000000000000081526004018080602001828103825283818151815260200191508051906020019080838360005b8381101561254b578082015181840152602081019050612530565b50505050905090810190601f1680156125785780820380516001836020036101000a031916815260200191505b509250505060405180910390fd5b5060008385039050809150509392505050565b600060019054906101000a900460ff16806125b857506125b76122f6565b5b806125ce575060008054906101000a900460ff16155b612623576040517f08c379a000000000000000000000000000000000000000000000000000000000815260040180806020018281038252602e815260200180612e33602e913960400191505060405180910390fd5b60008060019054906101000a900460ff161590508015612673576001600060016101000a81548160ff02191690831515021790555060016000806101000a81548160ff0219169083151502179055505b61267b6126a7565b6126836127a5565b80156126a45760008060016101000a81548160ff0219169083151502179055505b50565b600060019054906101000a900460ff16806126c657506126c56122f6565b5b806126dc575060008054906101000a900460ff16155b612731576040517f08c379a000000000000000000000000000000000000000000000000000000000815260040180806020018281038252602e815260200180612e33602e913960400191505060405180910390fd5b60008060019054906101000a900460ff161590508015612781576001600060016101000a81548160ff02191690831515021790555060016000806101000a81548160ff0219169083151502179055505b80156127a25760008060016101000a81548160ff0219169083151502179055505b50565b600060019054906101000a900460ff16806127c457506127c36122f6565b5b806127da575060008054906101000a900460ff16155b61282f576040517f08c379a000000000000000000000000000000000000000000000000000000000815260040180806020018281038252602e815260200180612e33602e913960400191505060405180910390fd5b60008060019054906101000a900460ff16159050801561287f576001600060016101000a81548160ff02191690831515021790555060016000806101000a81548160ff0219169083151502179055505b6000612889611fd8565b905080606560006101000a81548173ffffffffffffffffffffffffffffffffffffffff021916908373ffffffffffffffffffffffffffffffffffffffff1602179055508073ffffffffffffffffffffffffffffffffffffffff16600073ffffffffffffffffffffffffffffffffffffffff167f8be0079c531659141344cd1fd0a4f28419497f9722a3daafe3b4186f6b6457e060405160405180910390a35080156129495760008060016101000a81548160ff0219169083151502179055505b50565b6104928061295a8339019056fe608060405234801561001057600080fd5b50610472806100206000396000f3fe60806040526004361061002d5760003560e01c80631a695230146100a2578063c4d66de8146100f35761009d565b3661009d57603360009054906101000a900473ffffffffffffffffffffffffffffffffffffffff1673ffffffffffffffffffffffffffffffffffffffff166108fc349081150290604051600060405180830381858888f1935050505015801561009a573d6000803e3d6000fd5b50005b600080fd5b3480156100ae57600080fd5b506100f1600480360360208110156100c557600080fd5b81019080803573ffffffffffffffffffffffffffffffffffffffff169060200190929190505050610144565b005b3480156100ff57600080fd5b506101426004803603602081101561011657600080fd5b81019080803573ffffffffffffffffffffffffffffffffffffffff1690602001909291905050506102b7565b005b8073ffffffffffffffffffffffffffffffffffffffff1663a9059cbb603360009054906101000a900473ffffffffffffffffffffffffffffffffffffffff168373ffffffffffffffffffffffffffffffffffffffff166370a08231306040518263ffffffff1660e01b8152600401808273ffffffffffffffffffffffffffffffffffffffff16815260200191505060206040518083038186803b1580156101ea57600080fd5b505afa1580156101fe573d6000803e3d6000fd5b505050506040513d602081101561021457600080fd5b81019080805190602001909291905050506040518363ffffffff1660e01b8152600401808373ffffffffffffffffffffffffffffffffffffffff16815260200182815260200192505050602060405180830381600087803b15801561027857600080fd5b505af115801561028c573d6000803e3d6000fd5b505050506040513d60208110156102a257600080fd5b81019080805190602001909291905050505050565b600060019054906101000a900460ff16806102d657506102d56103f7565b5b806102ec575060008054906101000a900460ff16155b610341576040517f08c379a000000000000000000000000000000000000000000000000000000000815260040180806020018281038252602e81526020018061040f602e913960400191505060405180910390fd5b60008060019054906101000a900460ff161590508015610391576001600060016101000a81548160ff02191690831515021790555060016000806101000a81548160ff0219169083151502179055505b81603360006101000a81548173ffffffffffffffffffffffffffffffffffffffff021916908373ffffffffffffffffffffffffffffffffffffffff16021790555080156103f35760008060016101000a81548160ff0219169083151502179055505b5050565b6000803090506000813b905060008114925050509056fe436f6e747261637420696e7374616e63652068617320616c7265616479206265656e20696e697469616c697a6564a2646970667358221220dbf226df81ebdf2c52409042f29830d8c7075a802cad47278aab3bcc5dbbf45b64736f6c634300060c00334f776e61626c653a206e6577206f776e657220697320746865207a65726f2061646472657373536166654d6174683a206d756c7469706c69636174696f6e206f766572666c6f77436f6e747261637420696e7374616e63652068617320616c7265616479206265656e20696e697469616c697a65644f776e61626c653a2063616c6c6572206973206e6f7420746865206d616e61676572a2646970667358221220a6106083202bbb15911c7b8b34c1ed81a871f8f2deca0ee9e2a08d521619445864736f6c634300060c0033",
  "immutableReferences": {},
  "source": "// SPDX-License-Identifier: MIT\r\npragma solidity >=0.6.0 <0.8.0;\r\n\r\nimport './CloneFactory.sol';\r\nimport './Wallet.sol';\r\nimport './Manageable.sol';\r\nimport '@openzeppelin/contracts-ethereum-package/contracts/token/ERC20/IERC20.sol';\r\nimport '@openzeppelin/contracts-ethereum-package/contracts/math/SafeMath.sol';\r\nimport '@openzeppelin/contracts-ethereum-package/contracts/utils/Address.sol';\r\n\r\ncontract MasterWallet is Manageable, CloneFactory {\r\n    using SafeMath for uint256;\r\n    using Address for address;\r\n\r\n    address private _coldWallet;\r\n    address private _wallet;\r\n    uint private _hotRate;\r\n\r\n    event ColdWalletChanged(address coldWalletAddress);\r\n    event WalletCreated(address walletAddress);\r\n    event EtherReceived(address userWalletAddress);\r\n\r\n    function initialize(address owner) public initializer {\r\n        __Manageable_init();\r\n        _wallet = address(new Wallet());\r\n        _coldWallet = owner;\r\n        _hotRate = 30;\r\n    }\r\n\r\n    function changeHotColdRate(uint hotRate) public onlyOwner {\r\n        require(hotRate < 100 && hotRate > 0);\r\n        _hotRate = hotRate;\r\n    }\r\n\r\n    function createWallet() public onlyManager {\r\n        bytes memory _payload = abi.encodeWithSignature(\"initialize(address)\", address(this));\r\n        address newWallet = createClone(_wallet, _payload);\r\n        emit WalletCreated(newWallet);\r\n    }\r\n\r\n    function sendTokens(address[] memory tokenAddress, address[] memory target, uint256[] memory amount) public payable onlyManager {\r\n        require(tokenAddress.length == target.length && target.length == amount.length);\r\n        for(uint i=0 ; i<tokenAddress.length ; i++) {\r\n            if(tokenAddress[i] == address(0)) {\r\n                payable(target[i]).transfer(amount[i]);\r\n            } else {\r\n                IERC20(tokenAddress[i]).transfer(target[i], amount[i]);\r\n            }\r\n        }\r\n    }\r\n\r\n    function gathering(address[] memory tokenAddress, address[] memory target) public payable onlyManager {\r\n        for(uint i=0 ; i<tokenAddress.length ; i++) {\r\n            Wallet(payable(target[i])).transfer(tokenAddress[i]);\r\n        }\r\n    }\r\n\r\n    function rebalancingMany(address[] memory tokens) public onlyManager {\r\n        for(uint i=0 ; i<tokens.length ; i++) {\r\n            rebalancing(tokens[i]);\r\n        }\r\n    }\r\n\r\n    function rebalancing(address tokenAddress) public onlyManager {\r\n        uint256 coldBalance;\r\n        uint256 hotBalance;\r\n        uint256 targetValue;\r\n\r\n        if(tokenAddress == address(0)) {\r\n            coldBalance = _coldWallet.balance;\r\n            hotBalance = address(this).balance;\r\n\r\n            targetValue = percent(SafeMath.add(hotBalance,coldBalance), _hotRate);\r\n            // safemath \r\n            if(hotBalance > targetValue) {\r\n                payable(_coldWallet).transfer(SafeMath.sub(hotBalance,targetValue));\r\n            }\r\n        } else {\r\n            coldBalance = IERC20(tokenAddress).balanceOf(_coldWallet);\r\n            hotBalance = IERC20(tokenAddress).balanceOf(address(this));\r\n\r\n            targetValue = percent(SafeMath.add(hotBalance,coldBalance), _hotRate);\r\n            // safemath \r\n            if(hotBalance > targetValue) {\r\n                IERC20(tokenAddress).transfer(_coldWallet, SafeMath.sub(hotBalance, targetValue));\r\n            }\r\n        }\r\n    }\r\n\r\n    function setColdWallet(address coldWalletAddress) public onlyOwner {\r\n        _coldWallet = coldWalletAddress;\r\n        emit ColdWalletChanged(coldWalletAddress);\r\n    }\r\n\r\n    function getColdWallet() public view returns(address) {\r\n        return _coldWallet;\r\n    }\r\n\r\n    function percent(uint256 _value, uint256 _percent) public pure returns (uint256)  {\r\n        uint256 percentage = SafeMath.mul(_percent, 100);\r\n        uint256 roundValue = ceil(_value, percentage);\r\n        uint256 retPercent = SafeMath.div(SafeMath.mul(roundValue, percentage), 10000);\r\n        return retPercent;\r\n    }\r\n\r\n    function ceil(uint256 a, uint256 m) internal pure returns (uint256) {\r\n        uint256 c = SafeMath.add(a,m);\r\n        uint256 d = SafeMath.sub(c,1);\r\n        return SafeMath.mul(SafeMath.div(d,m),m);\r\n    }\r\n\r\n    receive() external payable {\r\n        emit EtherReceived(msg.sender);\r\n    }\r\n}",
  "sourcePath": "C:/Users/raynear/Project/SmartContractWallet/contracts/MasterWallet.sol",
  "compiler": {
    "name": "solc",
    "version": "0.6.12+commit.27d51765.Emscripten.clang"
  },
  "schemaVersion": "3.3.3",
  "updatedAt": "2021-01-22T07:13:46.812Z",
  "devdoc": {
    "kind": "dev",
    "methods": {
      "delManager(address)": {
        "details": "delManager"
      },
      "isManager(address)": {
        "details": "Throws if called by any account other than the manager."
      },
      "owner()": {
        "details": "Returns the address of the current owner."
      },
      "renounceOwnership()": {
        "details": "Leaves the contract without owner. It will not be possible to call `onlyOwner` functions anymore. Can only be called by the current owner. NOTE: Renouncing ownership will leave the contract without an owner, thereby removing any functionality that is only available to the owner."
      },
      "setManager(address)": {
        "details": "setManager"
      },
      "transferOwnership(address)": {
        "details": "Transfers ownership of the contract to a new account (`newOwner`). Can only be called by the current owner."
      }
    },
    "version": 1
  },
  "userdoc": {
    "kind": "user",
    "methods": {},
    "version": 1
  }
}