{
  "contractName": "MasterWallet",
  "abi": [
    {
      "anonymous": false,
      "inputs": [
        {
          "indexed": false,
          "internalType": "address",
          "name": "coldWalletAddress",
          "type": "address"
        }
      ],
      "name": "ColdWalletChanged",
      "type": "event"
    },
    {
      "anonymous": false,
      "inputs": [
        {
          "indexed": false,
          "internalType": "address",
          "name": "managerAddress",
          "type": "address"
        },
        {
          "indexed": false,
          "internalType": "bool",
          "name": "managerFlag",
          "type": "bool"
        }
      ],
      "name": "ManagerChanged",
      "type": "event"
    },
    {
      "anonymous": false,
      "inputs": [
        {
          "indexed": true,
          "internalType": "address",
          "name": "previousOwner",
          "type": "address"
        },
        {
          "indexed": true,
          "internalType": "address",
          "name": "newOwner",
          "type": "address"
        }
      ],
      "name": "OwnershipTransferred",
      "type": "event"
    },
    {
      "anonymous": false,
      "inputs": [
        {
          "indexed": false,
          "internalType": "address[]",
          "name": "walletAddress",
          "type": "address[]"
        }
      ],
      "name": "WalletCreated",
      "type": "event"
    },
    {
      "inputs": [
        {
          "internalType": "address",
          "name": "",
          "type": "address"
        }
      ],
      "name": "_manager",
      "outputs": [
        {
          "internalType": "bool",
          "name": "",
          "type": "bool"
        }
      ],
      "stateMutability": "view",
      "type": "function"
    },
    {
      "inputs": [
        {
          "internalType": "address",
          "name": "managerAddress",
          "type": "address"
        }
      ],
      "name": "delManager",
      "outputs": [],
      "stateMutability": "nonpayable",
      "type": "function"
    },
    {
      "inputs": [
        {
          "internalType": "address",
          "name": "manager",
          "type": "address"
        }
      ],
      "name": "isManager",
      "outputs": [
        {
          "internalType": "bool",
          "name": "",
          "type": "bool"
        }
      ],
      "stateMutability": "view",
      "type": "function"
    },
    {
      "inputs": [],
      "name": "owner",
      "outputs": [
        {
          "internalType": "address",
          "name": "",
          "type": "address"
        }
      ],
      "stateMutability": "view",
      "type": "function"
    },
    {
      "inputs": [],
      "name": "renounceOwnership",
      "outputs": [],
      "stateMutability": "nonpayable",
      "type": "function"
    },
    {
      "inputs": [
        {
          "internalType": "address",
          "name": "newManagerAddress",
          "type": "address"
        }
      ],
      "name": "setManager",
      "outputs": [],
      "stateMutability": "nonpayable",
      "type": "function"
    },
    {
      "inputs": [
        {
          "internalType": "address",
          "name": "newOwner",
          "type": "address"
        }
      ],
      "name": "transferOwnership",
      "outputs": [],
      "stateMutability": "nonpayable",
      "type": "function"
    },
    {
      "stateMutability": "payable",
      "type": "receive"
    },
    {
      "inputs": [
        {
          "internalType": "address",
          "name": "owner",
          "type": "address"
        }
      ],
      "name": "initialize",
      "outputs": [],
      "stateMutability": "nonpayable",
      "type": "function"
    },
    {
      "inputs": [
        {
          "internalType": "address",
          "name": "wallet",
          "type": "address"
        }
      ],
      "name": "setWalletModel",
      "outputs": [],
      "stateMutability": "nonpayable",
      "type": "function"
    },
    {
      "inputs": [
        {
          "internalType": "uint256",
          "name": "hotRate",
          "type": "uint256"
        }
      ],
      "name": "changeHotColdRate",
      "outputs": [],
      "stateMutability": "nonpayable",
      "type": "function"
    },
    {
      "inputs": [
        {
          "internalType": "uint256",
          "name": "n",
          "type": "uint256"
        }
      ],
      "name": "createWallet",
      "outputs": [],
      "stateMutability": "nonpayable",
      "type": "function"
    },
    {
      "inputs": [
        {
          "internalType": "address[]",
          "name": "tokenAddress",
          "type": "address[]"
        },
        {
          "internalType": "address[]",
          "name": "target",
          "type": "address[]"
        },
        {
          "internalType": "uint256[]",
          "name": "amount",
          "type": "uint256[]"
        }
      ],
      "name": "sendTokens",
      "outputs": [],
      "stateMutability": "payable",
      "type": "function"
    },
    {
      "inputs": [
        {
          "internalType": "address[]",
          "name": "tokenAddress",
          "type": "address[]"
        },
        {
          "internalType": "address[]",
          "name": "target",
          "type": "address[]"
        }
      ],
      "name": "gathering",
      "outputs": [],
      "stateMutability": "nonpayable",
      "type": "function"
    },
    {
      "inputs": [
        {
          "internalType": "address[]",
          "name": "tokens",
          "type": "address[]"
        }
      ],
      "name": "rebalancingMany",
      "outputs": [],
      "stateMutability": "nonpayable",
      "type": "function"
    },
    {
      "inputs": [
        {
          "internalType": "address",
          "name": "tokenAddress",
          "type": "address"
        }
      ],
      "name": "rebalancing",
      "outputs": [],
      "stateMutability": "nonpayable",
      "type": "function"
    },
    {
      "inputs": [
        {
          "internalType": "address",
          "name": "coldWalletAddress",
          "type": "address"
        }
      ],
      "name": "setColdWallet",
      "outputs": [],
      "stateMutability": "nonpayable",
      "type": "function"
    },
    {
      "inputs": [],
      "name": "getColdWallet",
      "outputs": [
        {
          "internalType": "address",
          "name": "",
          "type": "address"
        }
      ],
      "stateMutability": "view",
      "type": "function"
    }
  ],
  "bytecode": "0x608060405234801561001057600080fd5b50612c98806100206000396000f3fe6080604052600436106101025760003560e01c8063a65eacdc11610095578063d0ebdbe711610064578063d0ebdbe714610572578063e4dc64fc146105c3578063ec7c140b14610688578063f2fde38b14610868578063f3ae2415146108b957610109565b8063a65eacdc14610444578063ae684e3914610495578063b2ec5623146104e6578063c4d66de81461052157610109565b806345d4a354116100d157806345d4a3541461034a578063715018a6146103b15780637a675bb6146103c85780638da5cb5b1461040357610109565b806306087e5b1461010e5780630df9230f1461015f5780631f979c32146102b8578063210900f1146102f957610109565b3661010957005b600080fd5b34801561011a57600080fd5b5061015d6004803603602081101561013157600080fd5b81019080803573ffffffffffffffffffffffffffffffffffffffff169060200190929190505050610920565b005b34801561016b57600080fd5b506102b66004803603604081101561018257600080fd5b810190808035906020019064010000000081111561019f57600080fd5b8201836020820111156101b157600080fd5b803590602001918460208302840111640100000000831117156101d357600080fd5b919080806020026020016040519081016040528093929190818152602001838360200280828437600081840152601f19601f8201169050808301925050505050505091929192908035906020019064010000000081111561023357600080fd5b82018360208201111561024557600080fd5b8035906020019184602083028401116401000000008311171561026757600080fd5b919080806020026020016040519081016040528093929190818152602001838360200280828437600081840152601f19601f820116905080830192505050505050509192919290505050610a7b565b005b3480156102c457600080fd5b506102cd610bf0565b604051808273ffffffffffffffffffffffffffffffffffffffff16815260200191505060405180910390f35b34801561030557600080fd5b506103486004803603602081101561031c57600080fd5b81019080803573ffffffffffffffffffffffffffffffffffffffff169060200190929190505050610c1a565b005b34801561035657600080fd5b506103996004803603602081101561036d57600080fd5b81019080803573ffffffffffffffffffffffffffffffffffffffff169060200190929190505050610d28565b60405180821515815260200191505060405180910390f35b3480156103bd57600080fd5b506103c6610d48565b005b3480156103d457600080fd5b50610401600480360360208110156103eb57600080fd5b8101908080359060200190929190505050610ed3565b005b34801561040f57600080fd5b5061041861115b565b604051808273ffffffffffffffffffffffffffffffffffffffff16815260200191505060405180910390f35b34801561045057600080fd5b506104936004803603602081101561046757600080fd5b81019080803573ffffffffffffffffffffffffffffffffffffffff169060200190929190505050611185565b005b3480156104a157600080fd5b506104e4600480360360208110156104b857600080fd5b81019080803573ffffffffffffffffffffffffffffffffffffffff169060200190929190505050611302565b005b3480156104f257600080fd5b5061051f6004803603602081101561050957600080fd5b8101908080359060200190929190505050611688565b005b34801561052d57600080fd5b506105706004803603602081101561054457600080fd5b81019080803573ffffffffffffffffffffffffffffffffffffffff169060200190929190505050611775565b005b34801561057e57600080fd5b506105c16004803603602081101561059557600080fd5b81019080803573ffffffffffffffffffffffffffffffffffffffff1690602001909291905050506118c5565b005b3480156105cf57600080fd5b50610686600480360360208110156105e657600080fd5b810190808035906020019064010000000081111561060357600080fd5b82018360208201111561061557600080fd5b8035906020019184602083028401116401000000008311171561063757600080fd5b919080806020026020016040519081016040528093929190818152602001838360200280828437600081840152601f19601f820116905080830192505050505050509192919290505050611a42565b005b6108666004803603606081101561069e57600080fd5b81019080803590602001906401000000008111156106bb57600080fd5b8201836020820111156106cd57600080fd5b803590602001918460208302840111640100000000831117156106ef57600080fd5b919080806020026020016040519081016040528093929190818152602001838360200280828437600081840152601f19601f8201169050808301925050505050505091929192908035906020019064010000000081111561074f57600080fd5b82018360208201111561076157600080fd5b8035906020019184602083028401116401000000008311171561078357600080fd5b919080806020026020016040519081016040528093929190818152602001838360200280828437600081840152601f19601f820116905080830192505050505050509192919290803590602001906401000000008111156107e357600080fd5b8201836020820111156107f557600080fd5b8035906020019184602083028401116401000000008311171561081757600080fd5b919080806020026020016040519081016040528093929190818152602001838360200280828437600081840152601f19601f820116905080830192505050505050509192919290505050611b2b565b005b34801561087457600080fd5b506108b76004803603602081101561088b57600080fd5b81019080803573ffffffffffffffffffffffffffffffffffffffff169060200190929190505050611d14565b005b3480156108c557600080fd5b50610908600480360360208110156108dc57600080fd5b81019080803573ffffffffffffffffffffffffffffffffffffffff169060200190929190505050611f24565b60405180821515815260200191505060405180910390f35b610928611f81565b73ffffffffffffffffffffffffffffffffffffffff16606560009054906101000a900473ffffffffffffffffffffffffffffffffffffffff1673ffffffffffffffffffffffffffffffffffffffff16146109ea576040517f08c379a00000000000000000000000000000000000000000000000000000000081526004018080602001828103825260208152602001807f4f776e61626c653a2063616c6c6572206973206e6f7420746865206f776e657281525060200191505060405180910390fd5b80609860006101000a81548173ffffffffffffffffffffffffffffffffffffffff021916908373ffffffffffffffffffffffffffffffffffffffff1602179055507f12b87b4923747c53aaddfd1b826b461a2f191f35bcebb9b2a4194c47d664be6581604051808273ffffffffffffffffffffffffffffffffffffffff16815260200191505060405180910390a150565b6001151560976000610a8b611f81565b73ffffffffffffffffffffffffffffffffffffffff1673ffffffffffffffffffffffffffffffffffffffff16815260200190815260200160002060009054906101000a900460ff16151514610b2b576040517f08c379a0000000000000000000000000000000000000000000000000000000008152600401808060200182810382526022815260200180612c176022913960400191505060405180910390fd5b60005b8251811015610beb57818181518110610b4357fe5b602002602001015173ffffffffffffffffffffffffffffffffffffffff16631a695230848381518110610b7257fe5b60200260200101516040518263ffffffff1660e01b8152600401808273ffffffffffffffffffffffffffffffffffffffff168152602001915050600060405180830381600087803b158015610bc657600080fd5b505af1158015610bda573d6000803e3d6000fd5b505050508080600101915050610b2e565b505050565b6000609860009054906101000a900473ffffffffffffffffffffffffffffffffffffffff16905090565b610c22611f81565b73ffffffffffffffffffffffffffffffffffffffff16606560009054906101000a900473ffffffffffffffffffffffffffffffffffffffff1673ffffffffffffffffffffffffffffffffffffffff1614610ce4576040517f08c379a00000000000000000000000000000000000000000000000000000000081526004018080602001828103825260208152602001807f4f776e61626c653a2063616c6c6572206973206e6f7420746865206f776e657281525060200191505060405180910390fd5b80609960006101000a81548173ffffffffffffffffffffffffffffffffffffffff021916908373ffffffffffffffffffffffffffffffffffffffff16021790555050565b60976020528060005260406000206000915054906101000a900460ff1681565b610d50611f81565b73ffffffffffffffffffffffffffffffffffffffff16606560009054906101000a900473ffffffffffffffffffffffffffffffffffffffff1673ffffffffffffffffffffffffffffffffffffffff1614610e12576040517f08c379a00000000000000000000000000000000000000000000000000000000081526004018080602001828103825260208152602001807f4f776e61626c653a2063616c6c6572206973206e6f7420746865206f776e657281525060200191505060405180910390fd5b600073ffffffffffffffffffffffffffffffffffffffff16606560009054906101000a900473ffffffffffffffffffffffffffffffffffffffff1673ffffffffffffffffffffffffffffffffffffffff167f8be0079c531659141344cd1fd0a4f28419497f9722a3daafe3b4186f6b6457e060405160405180910390a36000606560006101000a81548173ffffffffffffffffffffffffffffffffffffffff021916908373ffffffffffffffffffffffffffffffffffffffff160217905550565b6001151560976000610ee3611f81565b73ffffffffffffffffffffffffffffffffffffffff1673ffffffffffffffffffffffffffffffffffffffff16815260200190815260200160002060009054906101000a900460ff16151514610f83576040517f08c379a0000000000000000000000000000000000000000000000000000000008152600401808060200182810382526022815260200180612c176022913960400191505060405180910390fd5b60608167ffffffffffffffff81118015610f9c57600080fd5b50604051908082528060200260200182016040528015610fcb5781602001602082028036833780820191505090505b50905060005b828110156110de576000611006609960009054906101000a900473ffffffffffffffffffffffffffffffffffffffff16611f89565b90508073ffffffffffffffffffffffffffffffffffffffff1663c4d66de8306040518263ffffffff1660e01b8152600401808273ffffffffffffffffffffffffffffffffffffffff168152602001915050600060405180830381600087803b15801561107157600080fd5b505af1158015611085573d6000803e3d6000fd5b505050508083838151811061109657fe5b602002602001019073ffffffffffffffffffffffffffffffffffffffff16908173ffffffffffffffffffffffffffffffffffffffff1681525050508080600101915050610fd1565b507fc7900830a01d825709c26dee71af4e1ed5c2349c6ddbf393290203b30f5b657f816040518080602001828103825283818151815260200191508051906020019060200280838360005b83811015611144578082015181840152602081019050611129565b505050509050019250505060405180910390a15050565b6000606560009054906101000a900473ffffffffffffffffffffffffffffffffffffffff16905090565b61118d611f81565b73ffffffffffffffffffffffffffffffffffffffff16606560009054906101000a900473ffffffffffffffffffffffffffffffffffffffff1673ffffffffffffffffffffffffffffffffffffffff161461124f576040517f08c379a00000000000000000000000000000000000000000000000000000000081526004018080602001828103825260208152602001807f4f776e61626c653a2063616c6c6572206973206e6f7420746865206f776e657281525060200191505060405180910390fd5b6000609760008373ffffffffffffffffffffffffffffffffffffffff1673ffffffffffffffffffffffffffffffffffffffff16815260200190815260200160002060006101000a81548160ff0219169083151502179055507f7da21a82304da61f5e2f4e156225cd8a75452a5f09f2579d11f0e5054103fb72816000604051808373ffffffffffffffffffffffffffffffffffffffff16815260200182151581526020019250505060405180910390a150565b6001151560976000611312611f81565b73ffffffffffffffffffffffffffffffffffffffff1673ffffffffffffffffffffffffffffffffffffffff16815260200190815260200160002060009054906101000a900460ff161515146113b2576040517f08c379a0000000000000000000000000000000000000000000000000000000008152600401808060200182810382526022815260200180612c176022913960400191505060405180910390fd5b60008060008073ffffffffffffffffffffffffffffffffffffffff168473ffffffffffffffffffffffffffffffffffffffff1614156114c157609860009054906101000a900473ffffffffffffffffffffffffffffffffffffffff1673ffffffffffffffffffffffffffffffffffffffff1631925047915061143f6114378385611ff3565b609a5461207b565b9050808211156114bc57609860009054906101000a900473ffffffffffffffffffffffffffffffffffffffff1673ffffffffffffffffffffffffffffffffffffffff166108fc61148f84846120be565b9081150290604051600060405180830381858888f193505050501580156114ba573d6000803e3d6000fd5b505b611682565b8373ffffffffffffffffffffffffffffffffffffffff166370a08231609860009054906101000a900473ffffffffffffffffffffffffffffffffffffffff166040518263ffffffff1660e01b8152600401808273ffffffffffffffffffffffffffffffffffffffff16815260200191505060206040518083038186803b15801561154a57600080fd5b505afa15801561155e573d6000803e3d6000fd5b505050506040513d602081101561157457600080fd5b810190808051906020019092919050505092508373ffffffffffffffffffffffffffffffffffffffff166370a08231306040518263ffffffff1660e01b8152600401808273ffffffffffffffffffffffffffffffffffffffff16815260200191505060206040518083038186803b1580156115ee57600080fd5b505afa158015611602573d6000803e3d6000fd5b505050506040513d602081101561161857600080fd5b810190808051906020019092919050505091506116406116388385611ff3565b609a5461207b565b9050808211156116815761168084609860009054906101000a900473ffffffffffffffffffffffffffffffffffffffff1661167b85856120be565b612108565b5b5b50505050565b611690611f81565b73ffffffffffffffffffffffffffffffffffffffff16606560009054906101000a900473ffffffffffffffffffffffffffffffffffffffff1673ffffffffffffffffffffffffffffffffffffffff1614611752576040517f08c379a00000000000000000000000000000000000000000000000000000000081526004018080602001828103825260208152602001807f4f776e61626c653a2063616c6c6572206973206e6f7420746865206f776e657281525060200191505060405180910390fd5b6064811080156117625750600081115b61176b57600080fd5b80609a8190555050565b600060019054906101000a900460ff168061179457506117936121aa565b5b806117aa575060008054906101000a900460ff16155b6117ff576040517f08c379a000000000000000000000000000000000000000000000000000000000815260040180806020018281038252602e815260200180612be9602e913960400191505060405180910390fd5b60008060019054906101000a900460ff16159050801561184f576001600060016101000a81548160ff02191690831515021790555060016000806101000a81548160ff0219169083151502179055505b6118576121c1565b81609860006101000a81548173ffffffffffffffffffffffffffffffffffffffff021916908373ffffffffffffffffffffffffffffffffffffffff160217905550601e609a8190555080156118c15760008060016101000a81548160ff0219169083151502179055505b5050565b6118cd611f81565b73ffffffffffffffffffffffffffffffffffffffff16606560009054906101000a900473ffffffffffffffffffffffffffffffffffffffff1673ffffffffffffffffffffffffffffffffffffffff161461198f576040517f08c379a00000000000000000000000000000000000000000000000000000000081526004018080602001828103825260208152602001807f4f776e61626c653a2063616c6c6572206973206e6f7420746865206f776e657281525060200191505060405180910390fd5b6001609760008373ffffffffffffffffffffffffffffffffffffffff1673ffffffffffffffffffffffffffffffffffffffff16815260200190815260200160002060006101000a81548160ff0219169083151502179055507f7da21a82304da61f5e2f4e156225cd8a75452a5f09f2579d11f0e5054103fb72816001604051808373ffffffffffffffffffffffffffffffffffffffff16815260200182151581526020019250505060405180910390a150565b6001151560976000611a52611f81565b73ffffffffffffffffffffffffffffffffffffffff1673ffffffffffffffffffffffffffffffffffffffff16815260200190815260200160002060009054906101000a900460ff16151514611af2576040517f08c379a0000000000000000000000000000000000000000000000000000000008152600401808060200182810382526022815260200180612c176022913960400191505060405180910390fd5b60005b8151811015611b2757611b1a828281518110611b0d57fe5b6020026020010151611302565b8080600101915050611af5565b5050565b6001151560976000611b3b611f81565b73ffffffffffffffffffffffffffffffffffffffff1673ffffffffffffffffffffffffffffffffffffffff16815260200190815260200160002060009054906101000a900460ff16151514611bdb576040517f08c379a0000000000000000000000000000000000000000000000000000000008152600401808060200182810382526022815260200180612c176022913960400191505060405180910390fd5b81518351148015611bed575080518251145b611bf657600080fd5b60005b8351811015611d0e57600073ffffffffffffffffffffffffffffffffffffffff16848281518110611c2657fe5b602002602001015173ffffffffffffffffffffffffffffffffffffffff161415611cbc57828181518110611c5657fe5b602002602001015173ffffffffffffffffffffffffffffffffffffffff166108fc838381518110611c8357fe5b60200260200101519081150290604051600060405180830381858888f19350505050158015611cb6573d6000803e3d6000fd5b50611d01565b611d00848281518110611ccb57fe5b6020026020010151848381518110611cdf57fe5b6020026020010151848481518110611cf357fe5b6020026020010151612108565b5b8080600101915050611bf9565b50505050565b611d1c611f81565b73ffffffffffffffffffffffffffffffffffffffff16606560009054906101000a900473ffffffffffffffffffffffffffffffffffffffff1673ffffffffffffffffffffffffffffffffffffffff1614611dde576040517f08c379a00000000000000000000000000000000000000000000000000000000081526004018080602001828103825260208152602001807f4f776e61626c653a2063616c6c6572206973206e6f7420746865206f776e657281525060200191505060405180910390fd5b600073ffffffffffffffffffffffffffffffffffffffff168173ffffffffffffffffffffffffffffffffffffffff161415611e64576040517f08c379a0000000000000000000000000000000000000000000000000000000008152600401808060200182810382526026815260200180612ba26026913960400191505060405180910390fd5b8073ffffffffffffffffffffffffffffffffffffffff16606560009054906101000a900473ffffffffffffffffffffffffffffffffffffffff1673ffffffffffffffffffffffffffffffffffffffff167f8be0079c531659141344cd1fd0a4f28419497f9722a3daafe3b4186f6b6457e060405160405180910390a380606560006101000a81548173ffffffffffffffffffffffffffffffffffffffff021916908373ffffffffffffffffffffffffffffffffffffffff16021790555050565b600060011515609760008473ffffffffffffffffffffffffffffffffffffffff1673ffffffffffffffffffffffffffffffffffffffff16815260200190815260200160002060009054906101000a900460ff161515149050919050565b600033905090565b6000808260601b90506040517f3d602d80600a3d3981f3363d3d373d3d3d363d7300000000000000000000000081528160148201527f5af43d82803e903d91602b57fd5bf3000000000000000000000000000000000060288201526037816000f092505050919050565b600080828401905083811015612071576040517f08c379a000000000000000000000000000000000000000000000000000000000815260040180806020018281038252601b8152602001807f536166654d6174683a206164646974696f6e206f766572666c6f77000000000081525060200191505060405180910390fd5b8091505092915050565b6000806120898360646122c7565b90506000612097858361234d565b905060006120b06120a883856122c7565b612710612388565b905080935050505092915050565b600061210083836040518060400160405280601e81526020017f536166654d6174683a207375627472616374696f6e206f766572666c6f7700008152506123d2565b905092915050565b6121a58363a9059cbb60e01b8484604051602401808373ffffffffffffffffffffffffffffffffffffffff16815260200182815260200192505050604051602081830303815290604052907bffffffffffffffffffffffffffffffffffffffffffffffffffffffff19166020820180517bffffffffffffffffffffffffffffffffffffffffffffffffffffffff8381831617835250505050612492565b505050565b6000803090506000813b9050600081149250505090565b600060019054906101000a900460ff16806121e057506121df6121aa565b5b806121f6575060008054906101000a900460ff16155b61224b576040517f08c379a000000000000000000000000000000000000000000000000000000000815260040180806020018281038252602e815260200180612be9602e913960400191505060405180910390fd5b60008060019054906101000a900460ff16159050801561229b576001600060016101000a81548160ff02191690831515021790555060016000806101000a81548160ff0219169083151502179055505b6122a36126dd565b80156122c45760008060016101000a81548160ff0219169083151502179055505b50565b6000808314156122da5760009050612347565b60008284029050828482816122eb57fe5b0414612342576040517f08c379a0000000000000000000000000000000000000000000000000000000008152600401808060200182810382526021815260200180612bc86021913960400191505060405180910390fd5b809150505b92915050565b60008061235a8484611ff3565b905060006123698260016120be565b905061237e6123788286612388565b856122c7565b9250505092915050565b60006123ca83836040518060400160405280601a81526020017f536166654d6174683a206469766973696f6e206279207a65726f0000000000008152506127eb565b905092915050565b600083831115829061247f576040517f08c379a00000000000000000000000000000000000000000000000000000000081526004018080602001828103825283818151815260200191508051906020019080838360005b83811015612444578082015181840152602081019050612429565b50505050905090810190601f1680156124715780820380516001836020036101000a031916815260200191505b509250505060405180910390fd5b5060008385039050809150509392505050565b6124b18273ffffffffffffffffffffffffffffffffffffffff166128b1565b612523576040517f08c379a000000000000000000000000000000000000000000000000000000000815260040180806020018281038252601f8152602001807f5361666545524332303a2063616c6c20746f206e6f6e2d636f6e74726163740081525060200191505060405180910390fd5b600060608373ffffffffffffffffffffffffffffffffffffffff16836040518082805190602001908083835b60208310612572578051825260208201915060208101905060208303925061254f565b6001836020036101000a0380198251168184511680821785525050505050509050019150506000604051808303816000865af19150503d80600081146125d4576040519150601f19603f3d011682016040523d82523d6000602084013e6125d9565b606091505b509150915081612651576040517f08c379a00000000000000000000000000000000000000000000000000000000081526004018080602001828103825260208152602001807f5361666545524332303a206c6f772d6c6576656c2063616c6c206661696c656481525060200191505060405180910390fd5b6000815111156126d75780806020019051602081101561267057600080fd5b81019080805190602001909291905050506126d6576040517f08c379a000000000000000000000000000000000000000000000000000000000815260040180806020018281038252602a815260200180612c39602a913960400191505060405180910390fd5b5b50505050565b600060019054906101000a900460ff16806126fc57506126fb6121aa565b5b80612712575060008054906101000a900460ff16155b612767576040517f08c379a000000000000000000000000000000000000000000000000000000000815260040180806020018281038252602e815260200180612be9602e913960400191505060405180910390fd5b60008060019054906101000a900460ff1615905080156127b7576001600060016101000a81548160ff02191690831515021790555060016000806101000a81548160ff0219169083151502179055505b6127bf6128fc565b6127c76129fa565b80156127e85760008060016101000a81548160ff0219169083151502179055505b50565b60008083118290612897576040517f08c379a00000000000000000000000000000000000000000000000000000000081526004018080602001828103825283818151815260200191508051906020019080838360005b8381101561285c578082015181840152602081019050612841565b50505050905090810190601f1680156128895780820380516001836020036101000a031916815260200191505b509250505060405180910390fd5b5060008385816128a357fe5b049050809150509392505050565b60008060007fc5d2460186f7233c927e7db2dcc703c0e500b653ca82273b7bfad8045d85a47060001b9050833f91508082141580156128f357506000801b8214155b92505050919050565b600060019054906101000a900460ff168061291b575061291a6121aa565b5b80612931575060008054906101000a900460ff16155b612986576040517f08c379a000000000000000000000000000000000000000000000000000000000815260040180806020018281038252602e815260200180612be9602e913960400191505060405180910390fd5b60008060019054906101000a900460ff1615905080156129d6576001600060016101000a81548160ff02191690831515021790555060016000806101000a81548160ff0219169083151502179055505b80156129f75760008060016101000a81548160ff0219169083151502179055505b50565b600060019054906101000a900460ff1680612a195750612a186121aa565b5b80612a2f575060008054906101000a900460ff16155b612a84576040517f08c379a000000000000000000000000000000000000000000000000000000000815260040180806020018281038252602e815260200180612be9602e913960400191505060405180910390fd5b60008060019054906101000a900460ff161590508015612ad4576001600060016101000a81548160ff02191690831515021790555060016000806101000a81548160ff0219169083151502179055505b6000612ade611f81565b905080606560006101000a81548173ffffffffffffffffffffffffffffffffffffffff021916908373ffffffffffffffffffffffffffffffffffffffff1602179055508073ffffffffffffffffffffffffffffffffffffffff16600073ffffffffffffffffffffffffffffffffffffffff167f8be0079c531659141344cd1fd0a4f28419497f9722a3daafe3b4186f6b6457e060405160405180910390a3508015612b9e5760008060016101000a81548160ff0219169083151502179055505b5056fe4f776e61626c653a206e6577206f776e657220697320746865207a65726f2061646472657373536166654d6174683a206d756c7469706c69636174696f6e206f766572666c6f77436f6e747261637420696e7374616e63652068617320616c7265616479206265656e20696e697469616c697a65644f776e61626c653a2063616c6c6572206973206e6f7420746865206d616e616765725361666545524332303a204552433230206f7065726174696f6e20646964206e6f742073756363656564a2646970667358221220a5e3c941523e9ab4956867cce5b629cc19cf32a23e86a70994531ad06a4dd70764736f6c634300060c0033",
  "immutableReferences": {},
  "source": "// SPDX-License-Identifier: MIT\r\npragma solidity >=0.6.0 <0.8.0;\r\n\r\nimport './Wallet.sol';\r\nimport './Manageable.sol';\r\nimport '@openzeppelin/contracts-ethereum-package/contracts/token/ERC20/IERC20.sol';\r\nimport '@openzeppelin/contracts-ethereum-package/contracts/token/ERC20/SafeERC20.sol';\r\nimport '@openzeppelin/contracts-ethereum-package/contracts/math/SafeMath.sol';\r\nimport '@openzeppelin/contracts-ethereum-package/contracts/utils/Address.sol';\r\nimport '@optionality.io/clone-factory/contracts/CloneFactory.sol';\r\n\r\ncontract MasterWallet is Manageable, CloneFactory {\r\n    using SafeMath for uint256;\r\n    using Address for address;\r\n\r\n    address private _coldWallet;\r\n    address private _wallet;\r\n    uint private _hotRate;\r\n\r\n    event ColdWalletChanged(address coldWalletAddress);\r\n    event WalletCreated(address[] walletAddress);\r\n\r\n    function initialize(address owner) public initializer {\r\n        __Manageable_init();\r\n        _coldWallet = owner;\r\n        _hotRate = 30;\r\n    }\r\n\r\n    function setWalletModel(address wallet) public onlyOwner {\r\n        _wallet = wallet;\r\n    }\r\n\r\n    function changeHotColdRate(uint hotRate) public onlyOwner {\r\n        require(hotRate < 100 && hotRate > 0);\r\n        _hotRate = hotRate;\r\n    }\r\n\r\n    function createWallet(uint n) public onlyManager {\r\n        address[] memory walletList = new address[](n);\r\n        for(uint i=0 ; i<n; i++) {\r\n            address newWallet = createClone(_wallet);\r\n            Wallet(payable(newWallet)).initialize(address(this));\r\n            walletList[i] = newWallet;\r\n        }\r\n\r\n        emit WalletCreated(walletList);\r\n    }\r\n\r\n    function sendTokens(address[] memory tokenAddress, address[] memory target, uint256[] memory amount) public payable onlyManager {\r\n        require(tokenAddress.length == target.length && target.length == amount.length);\r\n        for(uint i=0 ; i<tokenAddress.length ; i++) {\r\n            if(tokenAddress[i] == address(0)) {\r\n                payable(target[i]).transfer(amount[i]);\r\n            } else {\r\n                SafeERC20.safeTransfer(IERC20(tokenAddress[i]), target[i], amount[i]);\r\n            }\r\n        }\r\n    }\r\n\r\n    function gathering(address[] memory tokenAddress, address[] memory target) public onlyManager {\r\n        for(uint i=0 ; i<tokenAddress.length ; i++) {\r\n            Wallet(payable(target[i])).transfer(tokenAddress[i]);\r\n        }\r\n    }\r\n\r\n    function rebalancingMany(address[] memory tokens) public onlyManager {\r\n        for(uint i=0 ; i<tokens.length ; i++) {\r\n            rebalancing(tokens[i]);\r\n        }\r\n    }\r\n\r\n    function rebalancing(address tokenAddress) public onlyManager {\r\n        uint256 coldBalance;\r\n        uint256 hotBalance;\r\n        uint256 targetValue;\r\n\r\n        if(tokenAddress == address(0)) {\r\n            coldBalance = _coldWallet.balance;\r\n            hotBalance = address(this).balance;\r\n\r\n            targetValue = percent(SafeMath.add(hotBalance,coldBalance), _hotRate);\r\n            if(hotBalance > targetValue) {\r\n                payable(_coldWallet).transfer(SafeMath.sub(hotBalance,targetValue));\r\n            }\r\n        } else {\r\n            coldBalance = IERC20(tokenAddress).balanceOf(_coldWallet);\r\n            hotBalance = IERC20(tokenAddress).balanceOf(address(this));\r\n\r\n            targetValue = percent(SafeMath.add(hotBalance,coldBalance), _hotRate);\r\n            if(hotBalance > targetValue) {\r\n                SafeERC20.safeTransfer(IERC20(tokenAddress), _coldWallet, SafeMath.sub(hotBalance, targetValue));\r\n            }\r\n        }\r\n    }\r\n\r\n    function setColdWallet(address coldWalletAddress) public onlyOwner {\r\n        _coldWallet = coldWalletAddress;\r\n        emit ColdWalletChanged(coldWalletAddress);\r\n    }\r\n\r\n    function getColdWallet() public view returns(address) {\r\n        return _coldWallet;\r\n    }\r\n\r\n    function percent(uint256 _value, uint256 _percent) internal pure returns (uint256)  {\r\n        uint256 percentage = SafeMath.mul(_percent, 100);\r\n        uint256 roundValue = ceil(_value, percentage);\r\n        uint256 retPercent = SafeMath.div(SafeMath.mul(roundValue, percentage), 10000);\r\n        return retPercent;\r\n    }\r\n\r\n    function ceil(uint256 a, uint256 m) internal pure returns (uint256) {\r\n        uint256 c = SafeMath.add(a,m);\r\n        uint256 d = SafeMath.sub(c,1);\r\n        return SafeMath.mul(SafeMath.div(d,m),m);\r\n    }\r\n\r\n    receive() external payable {}\r\n}",
  "sourcePath": "C:/Users/raynear/Project/SmartContractWallet/contracts/MasterWallet.sol",
  "compiler": {
    "name": "solc",
    "version": "0.6.12+commit.27d51765.Emscripten.clang"
  },
  "schemaVersion": "3.3.3",
  "updatedAt": "2021-02-08T00:22:03.105Z",
  "devdoc": {
    "kind": "dev",
    "methods": {
      "delManager(address)": {
        "details": "delManager"
      },
      "isManager(address)": {
        "details": "Throws if called by any account other than the manager."
      },
      "owner()": {
        "details": "Returns the address of the current owner."
      },
      "renounceOwnership()": {
        "details": "Leaves the contract without owner. It will not be possible to call `onlyOwner` functions anymore. Can only be called by the current owner. NOTE: Renouncing ownership will leave the contract without an owner, thereby removing any functionality that is only available to the owner."
      },
      "setManager(address)": {
        "details": "setManager"
      },
      "transferOwnership(address)": {
        "details": "Transfers ownership of the contract to a new account (`newOwner`). Can only be called by the current owner."
      }
    },
    "version": 1
  },
  "userdoc": {
    "kind": "user",
    "methods": {},
    "version": 1
  }
}